{
  "_format": "hh-sol-artifact-1",
  "contractName": "CoffeeByWallet",
  "sourceName": "contracts/CoffeeByWallet.sol",
  "abi": [
    {
      "inputs": [],
      "stateMutability": "nonpayable",
      "type": "constructor"
    },
    {
      "anonymous": false,
      "inputs": [
        {
          "indexed": true,
          "internalType": "address",
          "name": "from",
          "type": "address"
        },
        {
          "indexed": false,
          "internalType": "string",
          "name": "name",
          "type": "string"
        },
        {
          "indexed": false,
          "internalType": "string",
          "name": "message",
          "type": "string"
        },
        {
          "indexed": false,
          "internalType": "uint256",
          "name": "timestamp",
          "type": "uint256"
        }
      ],
      "name": "buyCoffee",
      "type": "event"
    },
    {
      "inputs": [
        {
          "internalType": "string",
          "name": "name",
          "type": "string"
        },
        {
          "internalType": "string",
          "name": "message",
          "type": "string"
        }
      ],
      "name": "BuyCoffee",
      "outputs": [],
      "stateMutability": "payable",
      "type": "function"
    },
    {
      "inputs": [
        {
          "internalType": "string",
          "name": "name",
          "type": "string"
        },
        {
          "internalType": "string",
          "name": "message",
          "type": "string"
        }
      ],
      "name": "buyLargeCoffee",
      "outputs": [],
      "stateMutability": "payable",
      "type": "function"
    },
    {
      "inputs": [],
      "name": "getGifts",
      "outputs": [
        {
          "components": [
            {
              "internalType": "uint256",
              "name": "timestamp",
              "type": "uint256"
            },
            {
              "internalType": "string",
              "name": "message",
              "type": "string"
            },
            {
              "internalType": "string",
              "name": "name",
              "type": "string"
            },
            {
              "internalType": "address",
              "name": "from",
              "type": "address"
            }
          ],
          "internalType": "struct CoffeeByWallet.Gift[]",
          "name": "",
          "type": "tuple[]"
        }
      ],
      "stateMutability": "view",
      "type": "function"
    },
    {
      "inputs": [
        {
          "internalType": "uint256",
          "name": "",
          "type": "uint256"
        }
      ],
      "name": "gifts",
      "outputs": [
        {
          "internalType": "uint256",
          "name": "timestamp",
          "type": "uint256"
        },
        {
          "internalType": "string",
          "name": "message",
          "type": "string"
        },
        {
          "internalType": "string",
          "name": "name",
          "type": "string"
        },
        {
          "internalType": "address",
          "name": "from",
          "type": "address"
        }
      ],
      "stateMutability": "view",
      "type": "function"
    },
    {
      "inputs": [
        {
          "internalType": "address",
          "name": "newOwner",
          "type": "address"
        }
      ],
      "name": "updateWithdrawAddress",
      "outputs": [],
      "stateMutability": "nonpayable",
      "type": "function"
    },
    {
      "inputs": [],
      "name": "withdraw",
      "outputs": [],
      "stateMutability": "nonpayable",
      "type": "function"
    }
  ],
  "bytecode": "0x608060405234801561001057600080fd5b50336000806101000a81548173ffffffffffffffffffffffffffffffffffffffff021916908373ffffffffffffffffffffffffffffffffffffffff160217905550611156806100606000396000f3fe6080604052600436106100555760003560e01c80633ccfd60b1461005a578063417f9ea914610071578063a3f4b5731461008d578063a41fd4fb146100b6578063d6065935146100d2578063d6fa21e014610112575b600080fd5b34801561006657600080fd5b5061006f61013d565b005b61008b60048036038101906100869190610ad5565b61019d565b005b34801561009957600080fd5b506100b460048036038101906100af9190610bab565b61032c565b005b6100d060048036038101906100cb9190610ad5565b6103fd565b005b3480156100de57600080fd5b506100f960048036038101906100f49190610c0e565b610585565b6040516101099493929190610ce1565b60405180910390f35b34801561011e57600080fd5b506101276106f5565b6040516101349190610ec8565b60405180910390f35b60008054906101000a900473ffffffffffffffffffffffffffffffffffffffff1673ffffffffffffffffffffffffffffffffffffffff166108fc479081150290604051600060405180830381858888f1935050505061019b57600080fd5b565b660aa87bee5380003410156101e7576040517f08c379a00000000000000000000000000000000000000000000000000000000081526004016101de90610f5c565b60405180910390fd5b600160405180608001604052804281526020018481526020018381526020013373ffffffffffffffffffffffffffffffffffffffff16815250908060018154018082558091505060019003906000526020600020906004020160009091909190915060008201518160000155602082015181600101908051906020019061026f9291906108d8565b50604082015181600201908051906020019061028c9291906108d8565b5060608201518160030160006101000a81548173ffffffffffffffffffffffffffffffffffffffff021916908373ffffffffffffffffffffffffffffffffffffffff16021790555050503373ffffffffffffffffffffffffffffffffffffffff167f8188f359e241b64dfab5a715b9c9923638ac216532986e6ff04c489a1ab2de7683834260405161032093929190610f7c565b60405180910390a25050565b3373ffffffffffffffffffffffffffffffffffffffff1660008054906101000a900473ffffffffffffffffffffffffffffffffffffffff1673ffffffffffffffffffffffffffffffffffffffff16146103ba576040517f08c379a00000000000000000000000000000000000000000000000000000000081526004016103b190611033565b60405180910390fd5b806000806101000a81548173ffffffffffffffffffffffffffffffffffffffff021916908373ffffffffffffffffffffffffffffffffffffffff16021790555050565b60003411610440576040517f08c379a00000000000000000000000000000000000000000000000000000000081526004016104379061109f565b60405180910390fd5b600160405180608001604052804281526020018381526020018481526020013373ffffffffffffffffffffffffffffffffffffffff1681525090806001815401808255809150506001900390600052602060002090600402016000909190919091506000820151816000015560208201518160010190805190602001906104c89291906108d8565b5060408201518160020190805190602001906104e59291906108d8565b5060608201518160030160006101000a81548173ffffffffffffffffffffffffffffffffffffffff021916908373ffffffffffffffffffffffffffffffffffffffff16021790555050503373ffffffffffffffffffffffffffffffffffffffff167f8188f359e241b64dfab5a715b9c9923638ac216532986e6ff04c489a1ab2de7683834260405161057993929190610f7c565b60405180910390a25050565b6001818154811061059557600080fd5b90600052602060002090600402016000915090508060000154908060010180546105be906110ee565b80601f01602080910402602001604051908101604052809291908181526020018280546105ea906110ee565b80156106375780601f1061060c57610100808354040283529160200191610637565b820191906000526020600020905b81548152906001019060200180831161061a57829003601f168201915b50505050509080600201805461064c906110ee565b80601f0160208091040260200160405190810160405280929190818152602001828054610678906110ee565b80156106c55780601f1061069a576101008083540402835291602001916106c5565b820191906000526020600020905b8154815290600101906020018083116106a857829003601f168201915b5050505050908060030160009054906101000a900473ffffffffffffffffffffffffffffffffffffffff16905084565b60606001805480602002602001604051908101604052809291908181526020016000905b828210156108cf578382906000526020600020906004020160405180608001604052908160008201548152602001600182018054610756906110ee565b80601f0160208091040260200160405190810160405280929190818152602001828054610782906110ee565b80156107cf5780601f106107a4576101008083540402835291602001916107cf565b820191906000526020600020905b8154815290600101906020018083116107b257829003601f168201915b505050505081526020016002820180546107e8906110ee565b80601f0160208091040260200160405190810160405280929190818152602001828054610814906110ee565b80156108615780601f1061083657610100808354040283529160200191610861565b820191906000526020600020905b81548152906001019060200180831161084457829003601f168201915b505050505081526020016003820160009054906101000a900473ffffffffffffffffffffffffffffffffffffffff1673ffffffffffffffffffffffffffffffffffffffff1673ffffffffffffffffffffffffffffffffffffffff168152505081526020019060010190610719565b50505050905090565b8280546108e4906110ee565b90600052602060002090601f016020900481019282610906576000855561094d565b82601f1061091f57805160ff191683800117855561094d565b8280016001018555821561094d579182015b8281111561094c578251825591602001919060010190610931565b5b50905061095a919061095e565b5090565b5b8082111561097757600081600090555060010161095f565b5090565b6000604051905090565b600080fd5b600080fd5b600080fd5b600080fd5b6000601f19601f8301169050919050565b7f4e487b7100000000000000000000000000000000000000000000000000000000600052604160045260246000fd5b6109e282610999565b810181811067ffffffffffffffff82111715610a0157610a006109aa565b5b80604052505050565b6000610a1461097b565b9050610a2082826109d9565b919050565b600067ffffffffffffffff821115610a4057610a3f6109aa565b5b610a4982610999565b9050602081019050919050565b82818337600083830152505050565b6000610a78610a7384610a25565b610a0a565b905082815260208101848484011115610a9457610a93610994565b5b610a9f848285610a56565b509392505050565b600082601f830112610abc57610abb61098f565b5b8135610acc848260208601610a65565b91505092915050565b60008060408385031215610aec57610aeb610985565b5b600083013567ffffffffffffffff811115610b0a57610b0961098a565b5b610b1685828601610aa7565b925050602083013567ffffffffffffffff811115610b3757610b3661098a565b5b610b4385828601610aa7565b9150509250929050565b600073ffffffffffffffffffffffffffffffffffffffff82169050919050565b6000610b7882610b4d565b9050919050565b610b8881610b6d565b8114610b9357600080fd5b50565b600081359050610ba581610b7f565b92915050565b600060208284031215610bc157610bc0610985565b5b6000610bcf84828501610b96565b91505092915050565b6000819050919050565b610beb81610bd8565b8114610bf657600080fd5b50565b600081359050610c0881610be2565b92915050565b600060208284031215610c2457610c23610985565b5b6000610c3284828501610bf9565b91505092915050565b610c4481610bd8565b82525050565b600081519050919050565b600082825260208201905092915050565b60005b83811015610c84578082015181840152602081019050610c69565b83811115610c93576000848401525b50505050565b6000610ca482610c4a565b610cae8185610c55565b9350610cbe818560208601610c66565b610cc781610999565b840191505092915050565b610cdb81610b6d565b82525050565b6000608082019050610cf66000830187610c3b565b8181036020830152610d088186610c99565b90508181036040830152610d1c8185610c99565b9050610d2b6060830184610cd2565b95945050505050565b600081519050919050565b600082825260208201905092915050565b6000819050602082019050919050565b610d6981610bd8565b82525050565b600082825260208201905092915050565b6000610d8b82610c4a565b610d958185610d6f565b9350610da5818560208601610c66565b610dae81610999565b840191505092915050565b610dc281610b6d565b82525050565b6000608083016000830151610de06000860182610d60565b5060208301518482036020860152610df88282610d80565b91505060408301518482036040860152610e128282610d80565b9150506060830151610e276060860182610db9565b508091505092915050565b6000610e3e8383610dc8565b905092915050565b6000602082019050919050565b6000610e5e82610d34565b610e688185610d3f565b935083602082028501610e7a85610d50565b8060005b85811015610eb65784840389528151610e978582610e32565b9450610ea283610e46565b925060208a01995050600181019050610e7e565b50829750879550505050505092915050565b60006020820190508181036000830152610ee28184610e53565b905092915050565b7f416d6f756e7420697320746f6f206c6f7720666f72206c6172676520636f666660008201527f6565210000000000000000000000000000000000000000000000000000000000602082015250565b6000610f46602383610c55565b9150610f5182610eea565b604082019050919050565b60006020820190508181036000830152610f7581610f39565b9050919050565b60006060820190508181036000830152610f968186610c99565b90508181036020830152610faa8185610c99565b9050610fb96040830184610c3b565b949350505050565b7f4f6e6c79206f776e65722063616e206368616e6765207468652077697468647260008201527f6177206164647265737300000000000000000000000000000000000000000000602082015250565b600061101d602a83610c55565b915061102882610fc1565b604082019050919050565b6000602082019050818103600083015261104c81611010565b9050919050565b7f596f752063616e277420646f6e61746520302100000000000000000000000000600082015250565b6000611089601383610c55565b915061109482611053565b602082019050919050565b600060208201905081810360008301526110b88161107c565b9050919050565b7f4e487b7100000000000000000000000000000000000000000000000000000000600052602260045260246000fd5b6000600282049050600182168061110657607f821691505b6020821081141561111a576111196110bf565b5b5091905056fea2646970667358221220ab6fc1a6fcc9f394bb97a99b43396642790122336fe32a5ffbf3c3f71eafa2dc64736f6c634300080a0033",
  "linkReferences": {},
  "deployedLinkReferences": {}
}